:020000040800F2
:10000000484000209D010008F1060008A7010008F3
:10001000ED060008110200086D080008000000004D
:1000200000000000000000000000000015070008AC
:100030004502000800000000F3060008C5010008A2
:10004000C7010008C7010008C7010008C701000870
:10005000C7010008C7010008C7010008C701000860
:10006000C7010008C7010008C7010008C701000850
:10007000C7010008C7010008C7010008C701000840
:10008000C7010008C7010008C7010008C701000830
:10009000C7010008C7010008C7010008C701000820
:1000A000C7010008C7010008C7010008C701000810
:1000B000C7010008C7010008C7010008C701000800
:1000C000C7010008C7010008C7010008C7010008F0
:1000D000C7010008C7010008C7010008C7010008E0
:1000E000C7010008C7010008C7010008C7010008D0
:1000F000C7010008C7010008C7010008C7010008C0
:10010000C7010008C7010008C7010008C7010008AF
:10011000C7010008C7010008C7010008C70100089F
:10012000C7010008C7010008C7010008C70100088F
:10013000C7010008C7010008C7010008C70100087F
:10014000C7010008C7010008C7010008C70100086F
:10015000C7010008C7010008C7010008C70100085F
:10016000C7010008C7010008C7010008C70100084F
:10017000C7010008C7010008C7010008C70100083F
:10018000C7010008C7010008DFF80CD000F02EF806
:100190000048004759090008484000200A488047A5
:1001A0000A480047FEE71EF0040F0CBFEFF308807B
:1001B000EFF3098000F06CBBFEE7FEE7FEE7FEE729
:1001C000FEE7FEE7FEE7FEE70508000889010008F4
:1001D00030B504460020034600E05B1C934203D286
:1001E000E05CCD5C401BF8D030BD0000064C074DF4
:1001F00006E0E06840F0010394E8070098471034F7
:10020000AC42F6D3FFF7C4FF680C0008880C000866
:1002100000BFFEE710B502460B46002100BF04E018
:1002200052F82100034C2060491C9942F8D3014840
:10023000006810BD0030024001200149886070470D
:10024000003002407047000010B50446FFF7F4FF8D
:10025000022C0BD10E490F48FFF7DCFF0E4909684D
:10026000884201D1012010BD0020FCE7032C0CD1F5
:1002700007490948001DFFF7CDFF08490968884272
:1002800001D10120EFE70020EDE70020EBE70000BF
:10029000FF7F010000000408FCFF0908FCFF0F08B5
:1002A00001490860704700000C3C024070B50446EC
:1002B0000A460026092502B909E0012A01D11602E1
:1002C00005E0022A01D1160201E04FF4407600F069
:1002D00089F90546092D28D11548006820F4407099
:1002E0001349086008460068304308600846006803
:1002F00020F0F80008600846006844F00201084356
:100300000B4908600846006840F48030086000F03F
:1003100069F905460648006820F0020004490860B3
:100320000846006820F0F8000860284670BD00000C
:10033000103C024009201349096801F48031B1F5ED
:10034000803F01D101201CE00E49096801F0100135
:1003500009B1062015E00B49096801F4807109B163
:1003600002200EE00749096801F0EF0109B10720FA
:1003700007E00449096801F0020109B1082000E022
:10038000092070470C3C024070B504460D46012C14
:1003900009D12946102000F0D1F800F0A3F809286F
:1003A0001BD0012070BD022C0AD129464FF4E07009
:1003B00000F0C4F800F096F809280ED00120F1E70B
:1003C000032C0AD129464FF4606000F0B7F800F022
:1003D00089F8092801D00120E4E70020E2E70000C5
:1003E00070B5054600260024012D0BD11A4800F0F7
:1003F0000BF9064602213046FFF758FF092828D09E
:10040000012070BD022D11D1144800F0FDF8064600
:10041000344608E002212046FFF748FF092801D0B2
:100420000120EEE70834402CF4D912E0032D10D15E
:100430000B4800F0E9F80646344608E00221204661
:10044000FFF734FF092801D00120DAE70834582CDF
:10045000F4D90020D5E700000000010800000408DE
:1004600000000A0810B5F320FFF71AFF10BD0000C6
:1004700010B5102204490548FFF7AAFE08B901206B
:1004800010BD0020FCE7000000000108580C000827
:1004900070B505460E46002400BF13E056F8241040
:1004A000042202FB045000F063F8092807D155F834
:1004B000240056F82410884203D0022070BD012089
:1004C000FCE7641CB4F5C03FE8D30020F6E7000069
:1004D0000348006840F00040014908607047000090
:1004E000103C024000B509220548007840F00200A7
:1004F0000349087000F076F80246104600BD00007F
:10050000143C02400348006840F0010001490860C3
:1005100070470000143C02400548006800F00100EC
:1005200028B1044802490C39086003480860704744
:10053000143C02403B2A19087F6E5D4C30B50246E0
:100540000C46092500F04EF80546092D0CD12CB1BA
:100550000648008890430549088005E00348008864
:1005600091B208430149088030BD0000163C0240AA
:1005700030B502460C46092500F034F80546092D31
:1005800019D10E48006820F440700C4908600846F4
:10059000006840F4007008600846006840F0010000
:1005A0000860146000F01EF805460448006820F05A
:1005B000010002490860284630BD0000103C02409E
:1005C0000548006800F0004028B1044802490C3991
:1005D0000860034808607047103C024023016745EB
:1005E000AB89EFCD08B509200090FFF7A3FE00907E
:1005F00002E0FFF79FFE00909DF800000128F8D070
:100600009DF8000008BD0000014600202C4A9142E0
:1006100003D2B1F1006F00D350E02A4A914204D2D4
:10062000274A914201D3082048E0274A914204D248
:10063000244A914201D3102040E0244A914204D23E
:10064000214A914201D3182038E0214A914204D234
:100650001E4A914201D3202030E01E4A914204D22A
:100660001B4A914201D3282028E01B4A914204D220
:10067000184A914201D3302020E0184A914204D216
:10068000154A914201D3382018E0154A914204D20C
:10069000124A914201D3402010E0124A914204D202
:1006A0000F4A914201D3482008E00F4A914204D2F8
:1006B0000C4A914201D3502000E0582070470000BE
:1006C000004000080080000800C000080000010889
:1006D00000000208000004080000060800000808E6
:1006E00000000A0800000C0800000E0800BFFEE72A
:1006F0007047704729B1064A12680243044B1A60DA
:1007000004E0034A12688243014B1A6070470000FC
:1007100030380240704700000CB500200190009076
:100720003448006840F480303249086000BF3148E6
:10073000006800F4003000900198401C019000987F
:1007400018B90198B0F5A04FF1D12A48006800F41B
:10075000003010B10120009001E0002000900098CE
:10076000012846D123484030006840F0805021499C
:10077000403108602048006840F440401E4908604D
:100780001C48083000681B490831086008460068AA
:1007900040F4004008600846006840F4A05008603B
:1007A0001648091F0860081F006840F08070091F84
:1007B000086000BF0F48006800F000700028F9D002
:1007C00040F205700E4908600A480830006820F0C1
:1007D00003000849083108600846006840F002003C
:1007E000086000BF03480830006800F00C000828CB
:1007F000F8D10CBD00380240007000401954400789
:10080000003C024010B51548006840F470001349E0
:1008100008601348006840F001001149086000209A
:100820000F49083108600E4800680E4908400C491D
:1008300008600D48091D0860081F006820F480202A
:10084000091F0860002006490C310860FFF764FFAB
:100850004FF0006001498039086010BD88ED00E06C
:1008600000380240FFFFF6FE1030002400BFFEE714
:1008700002E008C8121F08C1002AFAD17047704769
:10088000002001E001C1121F002AFBD170470000C7
:10089000204A01681160204A416811601F4A81683E
:1008A00011601F4AC16811601E4A016911601E4A29
:1008B000416911601D4A816911601D4AC169116059
:1008C0001C4909681C4A11601A49091D09781B4A0C
:1008D00011701849491D0978194A11701549891D67
:1008E0000988184A1180134908310968164A1160AD
:1008F00010490C310968154A11600E491031096818
:10090000134A11600B4914310968124A116000BF83
:10091000FEE700000C000020100000201400002062
:10092000180000201C0000202000002024000020CF
:100930002800002024ED00E02C00002030000020E2
:100940003100002032000020340000203800002058
:100950003C0000204000002071B601210803FFF791
:10096000C9FEFFF77FFDFFF783FD01287ED103203D
:10097000FFF76AFC012858D1FFF722FEFFF7CCFDF4
:1009800000210220FFF700FD002846D10220FFF7DA
:1009900027FD00283DD1AD49AD48FFF779FD78BB73
:1009A0000220FFF751FC01282BD101210220FFF783
:1009B000EBFC08BB00210120FFF7E6FCC0B90120D9
:1009C000FFF70EFD80B901210846FFF7DDFC38B9BD
:1009D000FFF798FDFFF77CFD01209E4908601FE0AE
:1009E00009209C4908601BE008209A49086017E02C
:1009F00007209849086013E00620964908600FE038
:100A000003E00520934908600AE00420914908604A
:100A100006E003208F49086002E002208D4908604B
:100A2000FFF770FDFFF754FD6BE00220FFF70CFCB1
:100A300001285AD1FFF7C4FDFFF76EFD0021032006
:100A4000FFF7A2FC90BB0320FFF7CAFC78BB8049EC
:100A50007E48FFF71DFD58BB0320FFF7F5FB01287B
:100A60002FD101210320FFF78FFC00E050E020BBD5
:100A700000210120FFF788FCD8B90120FFF7B0FC66
:100A800080B901210846FFF77FFC38B9FFF73AFD2E
:100A9000FFF71EFD01206F49086021E009206D4924
:100AA00008601DE008206B49086019E015E010E0BF
:100AB0000BE007206749086012E0062065490860DE
:100AC0000EE00520634908600AE0042061490860DF
:100AD00006E003205F49086002E002205D490860EB
:100AE000FFF710FDFFF7F4FC05E05A48006840F0FE
:100AF0001000584908605748006840F48070554914
:100B000008605448006840F48050524908609BE0F7
:100B10000220FFF799FB012849D10320FFF794FB3E
:100B2000012802D14B4908608EE0FFF749FDFFF72D
:100B3000F3FC00210320FFF727FC50BB0320FFF745
:100B40004FFC10BB42494148FFF7A2FCC8B9032043
:100B5000FFF77AFB012810D101210320FFF714FCD5
:100B600038B9FFF7CFFCFFF7B3FC01203949086023
:100B700012E00620374908600EE00520354908607C
:100B80000AE004203349086006E003203149086088
:100B900002E002202F490860FFF7B4FCFFF798FC41
:100BA0002C48006840F480702A4908604CE003201B
:100BB000FFF74AFB01283BD1FFF702FDFFF7ACFC32
:100BC00000210220FFF7E0FB50BB0220FFF708FCEA
:100BD00010BB1E491E48FFF75BFCC8B90220FFF797
:100BE00033FB012810D101210220FFF7CDFB38B9DA
:100BF000FFF788FCFFF76CFC01201649086012E043
:100C00000620144908600EE00520124908600AE039
:100C100004201049086006E003200E49086002E045
:100C200002200C490860FFF76DFCFFF751FC05E05E
:100C30000848006840F4807006490860054800686C
:100C400040F010000349086000BFFEE700000A08FA
:100C500000000408080000201175160E0E9EC0D872
:100C600041354C771ABF9A0F880C0008000000200D
:100C70004400000070080008CC0C0008440000206C
:100C80000440000080080008000000000000000090
:100C90000000000000000000000000000000000054
:100CA0000000000000000000000000000000000044
:100CB0000000000000000000000000000000000034
:0C0CC00000000000000000000000000028
:040000050800018965
:00000001FF
