:020000040800F2
:10000000484000209D010008F5060008A7010008EF
:10001000F106000811020008710800080000000045
:1000200000000000000000000000000019070008A8
:100030004502000800000000F7060008C50100089E
:10004000C7010008C7010008C7010008C701000870
:10005000C7010008C7010008C7010008C701000860
:10006000C7010008C7010008C7010008C701000850
:10007000C7010008C7010008C7010008C701000840
:10008000C7010008C7010008C7010008C701000830
:10009000C7010008C7010008C7010008C701000820
:1000A000C7010008C7010008C7010008C701000810
:1000B000C7010008C7010008C7010008C701000800
:1000C000C7010008C7010008C7010008C7010008F0
:1000D000C7010008C7010008C7010008C7010008E0
:1000E000C7010008C7010008C7010008C7010008D0
:1000F000C7010008C7010008C7010008C7010008C0
:10010000C7010008C7010008C7010008C7010008AF
:10011000C7010008C7010008C7010008C70100089F
:10012000C7010008C7010008C7010008C70100088F
:10013000C7010008C7010008C7010008C70100087F
:10014000C7010008C7010008C7010008C70100086F
:10015000C7010008C7010008C7010008C70100085F
:10016000C7010008C7010008C7010008C70100084F
:10017000C7010008C7010008C7010008C70100083F
:10018000C7010008C7010008DFF80CD000F02EF806
:10019000004800475D090008484000200A488047A1
:1001A0000A480047FEE71EF0040F0CBFEFF308807B
:1001B000EFF3098000F06EBBFEE7FEE7FEE7FEE727
:1001C000FEE7FEE7FEE7FEE70908000889010008F0
:1001D00030B504460020034600E05B1C934203D286
:1001E000E05CCD5C401BF8D030BD0000064C074DF4
:1001F00006E0E06840F0010394E8070098471034F7
:10020000AC42F6D3FFF7C4FF800C0008A00C000836
:1002100000BFFEE710B502460B46002100BF04E018
:1002200052F82100034C2060491C9942F8D3014840
:10023000006810BD0030024001200149886070470D
:10024000003002407047000010B50446FFF7F4FF8D
:10025000022C0BD10E490F48FFF7DCFF0E4909684D
:10026000884201D1012010BD0020FCE7032C0CD1F5
:1002700007490948001DFFF7CDFF08490968884272
:1002800001D10120EFE70020EDE70020EBE70000BF
:10029000FF7F010000000408FCFF0908FCFF0F08B5
:1002A00001490860704700000C3C024070B50446EC
:1002B0000A460026092502B909E0012A01D11602E1
:1002C00005E0022A01D1160201E04FF4407600F069
:1002D0008BF90546092D28D11548006820F4407097
:1002E0001349086008460068304308600846006803
:1002F00020F0F80008600846006844F00201084356
:100300000B4908600846006840F48030086000F03F
:100310006BF905460648006820F0020004490860B1
:100320000846006820F0F8000860284670BD00000C
:10033000103C024009201349096801F48031B1F5ED
:10034000803F01D101201CE00E49096801F0100135
:1003500009B1062015E00B49096801F4807109B163
:1003600002200EE00749096801F0EF0109B10720FA
:1003700007E00449096801F0020109B1082000E022
:10038000092070470C3C024070B504460D46012C14
:1003900009D12946102000F0D3F800F0A5F809286B
:1003A0001BD0012070BD022C0AD129464FF4E07009
:1003B00000F0C6F800F098F809280ED00120F1E707
:1003C000032C0AD129464FF4606000F0B9F800F020
:1003D0008BF8092801D00120E4E70020E2E70000C3
:1003E00070B5054600260024012D0BD11A4800F0F7
:1003F0000DF9064602213046FFF758FF092828D09C
:10040000012070BD022D11D1144800F0FFF80646FE
:10041000344608E002212046FFF748FF092801D0B2
:100420000120EEE70834402CF4D912E0032D10D15E
:100430000B4800F0EBF80646344608E0022120465F
:10044000FFF734FF092801D00120DAE70834582CDF
:10045000F4D90020D5E700000000010800000408DE
:1004600000000A0810B5F320FFF71AFF10BD0000C6
:1004700010B5102204490548FFF7AAFE08B901206B
:1004800010BD0020FCE7000000000108700C00080F
:1004900070B505460E460024B54218D200BF13E0E1
:1004A00056F82410042202FB045000F063F80928D7
:1004B00007D155F8240056F82410884203D00220B2
:1004C00070BD0120FCE7641CB4F5C03FE8D30020F8
:1004D000F6E700000348006840F00040014908606A
:1004E00070470000103C024000B509220548007822
:1004F00040F002000349087000F076F8024610460A
:1005000000BD0000143C02400348006840F00100B8
:100510000149086070470000143C0240054800682B
:1005200000F0010028B1044802490C390860034872
:1005300008607047143C02403B2A19087F6E5D4CEE
:1005400030B502460C46092500F04EF80546092D47
:100550000CD12CB10648008890430549088005E07D
:100560000348008891B208430149088030BD00006B
:10057000163C024030B502460C46092500F034F81E
:100580000546092D19D10E48006820F440700C4929
:1005900008600846006840F400700860084600687B
:1005A00040F001000860146000F01EF805460448A1
:1005B000006820F0010002490860284630BD0000B4
:1005C000103C02400548006800F0004028B1044893
:1005D00002490C390860034808607047103C02402B
:1005E00023016745AB89EFCD08B509200090FFF7DF
:1005F000A1FE009002E0FFF79DFE00909DF8000034
:100600000128F8D09DF8000008BD00000146002038
:100610002C4A914203D2B1F1006F00D350E02A4A34
:10062000914204D2274A914201D3082048E0274A48
:10063000914204D2244A914201D3102040E0244A3E
:10064000914204D2214A914201D3182038E0214A34
:10065000914204D21E4A914201D3202030E01E4A2A
:10066000914204D21B4A914201D3282028E01B4A20
:10067000914204D2184A914201D3302020E0184A16
:10068000914204D2154A914201D3382018E0154A0C
:10069000914204D2124A914201D3402010E0124A02
:1006A000914204D20F4A914201D3482008E00F4AF8
:1006B000914204D20C4A914201D3502000E05820CC
:1006C00070470000004000080080000800C00008DB
:1006D00000000108000002080000040800000608ED
:1006E0000000080800000A0800000C0800000E08BE
:1006F00000BFFEE77047704729B1064A12680243FF
:10070000044B1A6004E0034A12688243014B1A60EA
:100710007047000030380240704700000CB50020E0
:10072000019000903448006840F4803032490860FD
:1007300000BF3148006800F4003000900198401C70
:100740000190009818B90198B0F5A04FF1D12A484E
:10075000006800F4003010B10120009001E000209A
:1007600000900098012846D123484030006840F0AE
:1007700080502149403108602048006840F44040E2
:100780001E4908601C48083000681B490831086091
:100790000846006840F4004008600846006840F4DD
:1007A000A05008601648091F0860081F006840F044
:1007B0008070091F086000BF0F48006800F00070DB
:1007C0000028F9D040F205700E4908600A48083048
:1007D000006820F0030008490831086008460068F6
:1007E00040F00200086000BF03480830006800F0D5
:1007F0000C000828F8D10CBD003802400070004001
:1008000019544007003C024010B51548006840F4F8
:100810007000134908601348006840F00100114956
:10082000086000200F49083108600E4800680E4932
:1008300008400C4908600D48091D0860081F006841
:1008400020F48020091F0860002006490C31086050
:10085000FFF764FF4FF0006001498039086010BD68
:1008600088ED00E000380240FFFFF6FE1030002463
:1008700000BFFEE702E008C8121F08C1002AFAD133
:1008800070477047002001E001C1121F002AFBD110
:1008900070470000204A01681160204A41681160D9
:1008A0001F4A816811601F4AC16811601E4A0169B0
:1008B00011601E4A416911601D4A816911601D4A1B
:1008C000C16911601C4909681C4A11601A49091D57
:1008D00009781B4A11701849491D0978194A117085
:1008E0001549891D0988184A11801349083109687A
:1008F000164A116010490C310968154A11600E49F9
:1009000010310968134A11600B4914310968124A01
:10091000116000BFFEE700000C0000201000002066
:1009200014000020180000201C00002020000020DF
:10093000240000202800002024ED00E02C000020EE
:100940003000002031000020320000203400002060
:10095000380000203C000020400000200121080356
:10096000FFF7CAFEFFF77EFDFFF782FD01287CD16D
:100970000320FFF769FC012858D1FFF723FEFFF79A
:10098000CDFD00210220FFF7FFFC002846D1022008
:10099000FFF726FD00283DD1B049B148FFF778FDAB
:1009A00078BB0220FFF750FC01282BD10121022047
:1009B000FFF7EAFC08BB00210120FFF7E5FCC0B906
:1009C0000120FFF70DFD80B901210846FFF7DCFC8F
:1009D00038B9FFF799FDFFF77DFD0120A1490860B7
:1009E0001FE009209F4908601BE008209D4908601E
:1009F00017E007209B49086013E00620994908602A
:100A00000FE003E00520974908600AE004209549BB
:100A1000086006E003209349086002E00220914943
:100A20000860FFF771FDFFF755FD69E00220FFF751
:100A30000BFC01285AD1FFF7C5FDFFF76FFD002120
:100A40000320FFF7A1FC70B30320FFF7C9FC58BBDC
:100A500083498248FFF71CFD38BB0320FFF7F4FBF6
:100A600001282FD10121032000E050E0FFF78CFC8A
:100A700020BB00210120FFF787FCD8B90120FFF738
:100A8000AFFC98B901210846FFF77EFC38B9FFF7A3
:100A90003BFDFFF71FFD01207249086021E009209E
:100AA000704908601DE019E014E00FE008206D496E
:100AB000086016E007206B49086012E006206949CB
:100AC00008600EE00520674908600AE004206549D7
:100AD000086006E003206349086002E002206149E3
:100AE0000860FFF711FDFFF7F5FC04E05D480068C2
:100AF0000A305C4908605B48006864305949086006
:100B00005848006800F57A705649086093E0022062
:100B1000FFF79AFB012848D10320FFF795FB012836
:100B200002D15049086086E0FFF74CFDFFF7F6FC64
:100B300000210320FFF728FC50B30320FFF750FCEF
:100B400010BB47494548FFF7A3FCC8B90320FFF78E
:100B50007BFB012810D101210320FFF715FC38B9D8
:100B6000FFF7D2FCFFF7B6FC01203E49086012E017
:100B700006203C4908600EE005203A4908600AE07A
:100B800004203849086006E003203649086002E086
:100B9000022034490860FFF7B7FCFFF79BFC31489F
:100BA000006864302F49086045E00320FFF74CFBE4
:100BB00001283BD1FFF706FDFFF7B0FC0021022022
:100BC000FFF7E2FB50BB0220FFF70AFC10BB2349F2
:100BD0002348FFF75DFCC8B90220FFF735FB012869
:100BE00010D101210220FFF7CFFB38B9FFF78CFCB1
:100BF000FFF770FC01201B49086012E0062019492C
:100C000008600EE00520174908600AE00420154935
:100C1000086006E003201349086002E00220114941
:100C20000860FFF771FCFFF755FC04E00D48006811
:100C30000A300C4908600FE0094840680A4908601A
:100C400008460068094908600549086880F3088873
:100C500000BF064800688047EEE7000000000A0871
:100C6000000004080800002004000020000000200C
:100C70001175160E0E9EC0D841354C771ABF9A0FCB
:100C8000A00C0008000000204400000074080008C8
:100C9000E40C000844000020044000008408000820
:100CA0000000000000000000000000000000000044
:100CB0000000000000000000000000000000000034
:100CC0000000000000000000000000000000000024
:100CD0000000000000000000000000000000000014
:040CE0000000000010
:040000050800018965
:00000001FF
